{
  "transactions": [
    {
      "hash": "0x256b4782054755533b8a7448d2b2751fb79f4a21887b3bdc4f91e4738727d381",
      "transactionType": "CREATE",
      "contractName": "PasswordStore",
      "contractAddress": "0x5fbdb2315678afecb367f032d93f642f64180aa3",
      "function": null,
      "arguments": null,
      "transaction": {
        "from": "0xf39fd6e51aad88f6f4ce6ab8827279cfffb92266",
        "gas": "0x95cf3",
        "value": "0x0",
        "input": "0x608060405234801561001057600080fd5b50336000806101000a81548173ffffffffffffffffffffffffffffffffffffffff021916908373ffffffffffffffffffffffffffffffffffffffff16021790555061072d806100606000396000f3fe608060405234801561001057600080fd5b50600436106100365760003560e01c8063290bb4531461003b578063cc8e239414610057575b600080fd5b61005560048036038101906100509190610325565b610075565b005b61005f6100b4565b60405161006c91906103ed565b60405180910390f35b80600190816100849190610625565b507fe0c0c4369656c0c076d23bc27b02824cebc7bef10cb375fd34334edd4974c85460405160405180910390a150565b606060008054906101000a900473ffffffffffffffffffffffffffffffffffffffff1673ffffffffffffffffffffffffffffffffffffffff163373ffffffffffffffffffffffffffffffffffffffff161461013b576040517ff442873000000000000000000000000000000000000000000000000000000000815260040160405180910390fd5b600180546101489061043e565b80601f01602080910402602001604051908101604052809291908181526020018280546101749061043e565b80156101c15780601f10610196576101008083540402835291602001916101c1565b820191906000526020600020905b8154815290600101906020018083116101a457829003601f168201915b5050505050905090565b6000604051905090565b600080fd5b600080fd5b600080fd5b600080fd5b6000601f19601f8301169050919050565b7f4e487b7100000000000000000000000000000000000000000000000000000000600052604160045260246000fd5b610232826101e9565b810181811067ffffffffffffffff82111715610251576102506101fa565b5b80604052505050565b60006102646101cb565b90506102708282610229565b919050565b600067ffffffffffffffff8211156102905761028f6101fa565b5b610299826101e9565b9050602081019050919050565b82818337600083830152505050565b60006102c86102c384610275565b61025a565b9050828152602081018484840111156102e4576102e36101e4565b5b6102ef8482856102a6565b509392505050565b600082601f83011261030c5761030b6101df565b5b813561031c8482602086016102b5565b91505092915050565b60006020828403121561033b5761033a6101d5565b5b600082013567ffffffffffffffff811115610359576103586101da565b5b610365848285016102f7565b91505092915050565b600081519050919050565b600082825260208201905092915050565b60005b838110156103a857808201518184015260208101905061038d565b60008484015250505050565b60006103bf8261036e565b6103c98185610379565b93506103d981856020860161038a565b6103e2816101e9565b840191505092915050565b6000602082019050818103600083015261040781846103b4565b905092915050565b7f4e487b7100000000000000000000000000000000000000000000000000000000600052602260045260246000fd5b6000600282049050600182168061045657607f821691505b6020821081036104695761046861040f565b5b50919050565b60008190508160005260206000209050919050565b60006020601f8301049050919050565b600082821b905092915050565b6000600883026104d17fffffffffffffffffffffffffffffffffffffffffffffffffffffffffffffffff82610494565b6104db8683610494565b95508019841693508086168417925050509392505050565b6000819050919050565b6000819050919050565b600061052261051d610518846104f3565b6104fd565b6104f3565b9050919050565b6000819050919050565b61053c83610507565b61055061054882610529565b8484546104a1565b825550505050565b600090565b610565610558565b610570818484610533565b505050565b5b818110156105945761058960008261055d565b600181019050610576565b5050565b601f8211156105d9576105aa8161046f565b6105b384610484565b810160208510156105c2578190505b6105d66105ce85610484565b830182610575565b50505b505050565b600082821c905092915050565b60006105fc600019846008026105de565b1980831691505092915050565b600061061583836105eb565b9150826002028217905092915050565b61062e8261036e565b67ffffffffffffffff811115610647576106466101fa565b5b610651825461043e565b61065c828285610598565b600060209050601f83116001811461068f576000841561067d578287015190505b6106878582610609565b8655506106ef565b601f19841661069d8661046f565b60005b828110156106c5578489015182556001820191506020850194506020810190506106a0565b868310156106e257848901516106de601f8916826105eb565b8355505b6001600288020188555050505b50505050505056fea2646970667358221220d1320ada04469e39cdd096d1727420e27ccc437e3fc97fa0612bdf2c9da8b6f464736f6c63430008120033",
        "nonce": "0x0",
        "chainId": "0x7a69"
      },
      "additionalContracts": [],
      "isFixedGasLimit": false
    },
    {
      "hash": "0xa5f14f1f33ff4e055d1532749df63493cae9780a358033ec661f43d390ba07b2",
      "transactionType": "CALL",
      "contractName": "PasswordStore",
      "contractAddress": "0x5fbdb2315678afecb367f032d93f642f64180aa3",
      "function": "setPassword(string)",
      "arguments": [
        "\"myPassword\""
      ],
      "transaction": {
        "from": "0xf39fd6e51aad88f6f4ce6ab8827279cfffb92266",
        "to": "0x5fbdb2315678afecb367f032d93f642f64180aa3",
        "gas": "0x106da",
        "value": "0x0",
        "input": "0x290bb4530000000000000000000000000000000000000000000000000000000000000020000000000000000000000000000000000000000000000000000000000000000a6d7950617373776f726400000000000000000000000000000000000000000000",
        "nonce": "0x1",
        "chainId": "0x7a69"
      },
      "additionalContracts": [],
      "isFixedGasLimit": false
    }
  ],
  "receipts": [
    {
      "status": "0x1",
      "cumulativeGasUsed": "0x73449",
      "logs": [],
      "logsBloom": "0x00000000000000000000000000000000000000000000000000000000000000000000000000000000000000000000000000000000000000000000000000000000000000000000000000000000000000000000000000000000000000000000000000000000000000000000000000000000000000000000000000000000000000000000000000000000000000000000000000000000000000000000000000000000000000000000000000000000000000000000000000000000000000000000000000000000000000000000000000000000000000000000000000000000000000000000000000000000000000000000000000000000000000000000000000000000",
      "type": "0x2",
      "transactionHash": "0x256b4782054755533b8a7448d2b2751fb79f4a21887b3bdc4f91e4738727d381",
      "transactionIndex": "0x0",
      "blockHash": "0x5ace6fa96bdb86ca66475d22fc9db33b82ba308644b29611a3a7b7047b563a9d",
      "blockNumber": "0x1",
      "gasUsed": "0x73449",
      "effectiveGasPrice": "0x3b9aca01",
      "blobGasPrice": "0x1",
      "from": "0xf39fd6e51aad88f6f4ce6ab8827279cfffb92266",
      "to": null,
      "contractAddress": "0x5fbdb2315678afecb367f032d93f642f64180aa3",
      "root": "0x4ed727a36ad4fc887c192e45e998abfa534fe8ea237cb011ab60e09987705f5d"
    },
    {
      "status": "0x1",
      "cumulativeGasUsed": "0xb3bb",
      "logs": [
        {
          "address": "0x5fbdb2315678afecb367f032d93f642f64180aa3",
          "topics": [
            "0xe0c0c4369656c0c076d23bc27b02824cebc7bef10cb375fd34334edd4974c854"
          ],
          "data": "0x",
          "blockHash": "0x0be89ea90a976cc844248a50af858ce90f542f3958f456c9cfa04fef1645f6e4",
          "blockNumber": "0x2",
          "blockTimestamp": "0x6693d283",
          "transactionHash": "0xa5f14f1f33ff4e055d1532749df63493cae9780a358033ec661f43d390ba07b2",
          "transactionIndex": "0x0",
          "logIndex": "0x0",
          "removed": false
        }
      ],
      "logsBloom": "0x00000000000000000000000000000000000000400000000000000000000000000000000000000000000000000000000000000000000000000000000000000000000000000000000000000000000000000000000000000000000000000000000000000040000000000000000000000000000000000000000000000000000020000000000000000000000000000000000000000000000000000000000200000000000000000000000000000000000000000000000000000000000000000000000000000040000000000000000000000000000000000000000000000000000000000000000020000000000000000000000000000000000000000000000000000000",
      "type": "0x2",
      "transactionHash": "0xa5f14f1f33ff4e055d1532749df63493cae9780a358033ec661f43d390ba07b2",
      "transactionIndex": "0x0",
      "blockHash": "0x0be89ea90a976cc844248a50af858ce90f542f3958f456c9cfa04fef1645f6e4",
      "blockNumber": "0x2",
      "gasUsed": "0xb3bb",
      "effectiveGasPrice": "0x346379cc",
      "blobGasPrice": "0x1",
      "from": "0xf39fd6e51aad88f6f4ce6ab8827279cfffb92266",
      "to": "0x5fbdb2315678afecb367f032d93f642f64180aa3",
      "contractAddress": null,
      "root": "0xd1ba9adb2f350e397639664161de2983bd16a60a50e90b98490322ecb50a9027"
    }
  ],
  "libraries": [],
  "pending": [],
  "returns": {
    "0": {
      "internal_type": "contract PasswordStore",
      "value": "0x5FbDB2315678afecb367f032d93F642f64180aa3"
    }
  },
  "timestamp": 1720963714,
  "chain": 31337,
  "commit": "7d55682"
}